{
  "contractName": "MemberRole",
  "abi": [
    {
      "inputs": [],
      "stateMutability": "nonpayable",
      "type": "constructor"
    },
    {
      "anonymous": false,
      "inputs": [
        {
          "indexed": false,
          "internalType": "address",
          "name": "member",
          "type": "address"
        },
        {
          "indexed": false,
          "internalType": "uint256",
          "name": "activationTime",
          "type": "uint256"
        },
        {
          "indexed": false,
          "internalType": "string",
          "name": "roleType",
          "type": "string"
        }
      ],
      "name": "RoleAdded",
      "type": "event"
    },
    {
      "anonymous": false,
      "inputs": [
        {
          "indexed": false,
          "internalType": "address",
          "name": "member",
          "type": "address"
        },
        {
          "indexed": false,
          "internalType": "bool",
          "name": "newRole",
          "type": "bool"
        },
        {
          "indexed": false,
          "internalType": "uint256",
          "name": "timestamp",
          "type": "uint256"
        }
      ],
      "name": "StateChanged",
      "type": "event"
    },
    {
      "inputs": [
        {
          "internalType": "uint256",
          "name": "",
          "type": "uint256"
        }
      ],
      "name": "addresses",
      "outputs": [
        {
          "internalType": "address",
          "name": "",
          "type": "address"
        }
      ],
      "stateMutability": "view",
      "type": "function",
      "constant": true
    },
    {
      "inputs": [],
      "name": "membersCount",
      "outputs": [
        {
          "internalType": "uint256",
          "name": "",
          "type": "uint256"
        }
      ],
      "stateMutability": "view",
      "type": "function",
      "constant": true
    },
    {
      "inputs": [
        {
          "internalType": "uint256",
          "name": "",
          "type": "uint256"
        }
      ],
      "name": "roleTypes",
      "outputs": [
        {
          "internalType": "string",
          "name": "",
          "type": "string"
        }
      ],
      "stateMutability": "view",
      "type": "function",
      "constant": true
    },
    {
      "inputs": [],
      "name": "roleTypesCount",
      "outputs": [
        {
          "internalType": "uint256",
          "name": "",
          "type": "uint256"
        }
      ],
      "stateMutability": "view",
      "type": "function",
      "constant": true
    },
    {
      "inputs": [
        {
          "internalType": "address",
          "name": "",
          "type": "address"
        }
      ],
      "name": "userRole",
      "outputs": [
        {
          "internalType": "uint256",
          "name": "activationTime",
          "type": "uint256"
        },
        {
          "internalType": "bool",
          "name": "isActive",
          "type": "bool"
        },
        {
          "internalType": "string",
          "name": "roleType",
          "type": "string"
        }
      ],
      "stateMutability": "view",
      "type": "function",
      "constant": true
    },
    {
      "inputs": [
        {
          "internalType": "address",
          "name": "_member",
          "type": "address"
        },
        {
          "internalType": "uint256",
          "name": "_roleType",
          "type": "uint256"
        }
      ],
      "name": "addRole",
      "outputs": [],
      "stateMutability": "nonpayable",
      "type": "function"
    },
    {
      "inputs": [
        {
          "internalType": "address",
          "name": "_member",
          "type": "address"
        },
        {
          "internalType": "bool",
          "name": "_newState",
          "type": "bool"
        }
      ],
      "name": "changeRoleStatus",
      "outputs": [],
      "stateMutability": "nonpayable",
      "type": "function"
    },
    {
      "inputs": [
        {
          "internalType": "string",
          "name": "_roleType",
          "type": "string"
        }
      ],
      "name": "addRoleType",
      "outputs": [],
      "stateMutability": "nonpayable",
      "type": "function"
    }
  ],
  "bytecode": "0x608060405234801561001057600080fd5b50600080546001600160a01b03191633179055610c2c806100326000396000f3fe608060405234801561001057600080fd5b50600436106100885760003560e01c8063968923a41161005b578063968923a4146100f35780639a496a3c14610106578063be09174d1461010f578063edf26d9b1461012f57600080fd5b8063297f9af01461008d5780634caa94db146100a9578063534f5680146100be5780637fde1c8a146100e0575b600080fd5b61009660045481565b6040519081526020015b60405180910390f35b6100bc6100b736600461089b565b61015a565b005b6100d16100cc3660046108d7565b61033f565b6040516100a093929190610946565b6100bc6100ee366004610970565b6103ee565b6100bc6101013660046109b0565b61062f565b61009660055481565b61012261011d366004610a61565b610710565b6040516100a09190610a7a565b61014261013d366004610a61565b6107bc565b6040516001600160a01b0390911681526020016100a0565b6000546001600160a01b0316331461018d5760405162461bcd60e51b815260040161018490610a8d565b60405180910390fd5b6001600160a01b0382166101e35760405162461bcd60e51b815260206004820152601e60248201527f506c6561652070726f7669646520612076616c696420616464726573732e00006044820152606401610184565b6001600160a01b0382166000908152600360205260409020546102535760405162461bcd60e51b815260206004820152602260248201527f546869732061646472657373206973206e6f7420612076616c6964206d656d6260448201526132b960f11b6064820152608401610184565b6001600160a01b03821660009081526003602052604090206001015460ff16151581151514156102d15760405162461bcd60e51b815260206004820152602360248201527f546865206d656d62657220697320616c726561647920696e207468697320737460448201526261746560e81b6064820152608401610184565b6001600160a01b038216600081815260036020908152604091829020600101805460ff191685151590811790915582519384529083015242908201527fb965fe859adbfcaf277bb9d21a5de534aa40f5a06a58dbf224de25d789b063a9906060015b60405180910390a15050565b600360205260009081526040902080546001820154600283018054929360ff9092169261036b90610aba565b80601f016020809104026020016040519081016040528092919081815260200182805461039790610aba565b80156103e45780601f106103b9576101008083540402835291602001916103e4565b820191906000526020600020905b8154815290600101906020018083116103c757829003601f168201915b5050505050905083565b6000546001600160a01b031633146104185760405162461bcd60e51b815260040161018490610a8d565b6001600160a01b03821661046e5760405162461bcd60e51b815260206004820152601f60248201527f506c656173652070726f7669646520612076616c696420616464726573732e006044820152606401610184565b60405180606001604052804281526020016001151581526020016001838154811061049b5761049b610af5565b9060005260206000200180546104b090610aba565b80601f01602080910402602001604051908101604052809291908181526020018280546104dc90610aba565b80156105295780601f106104fe57610100808354040283529160200191610529565b820191906000526020600020905b81548152906001019060200180831161050c57829003601f168201915b5050509190925250506001600160a01b038316600090815260036020908152604091829020835181558382015160018201805460ff191691151591909117905591830151805161057f92600285019201906107e6565b50506002805460018101825560009182527f405787fa12a823e0f2b7631cc41b3ba8828b3321ca811111fa75cd3aa3bb5ace0180546001600160a01b0319166001600160a01b038616179055600480549250906105db83610b0b565b91905055507f2d11a6c31a685efcee07cc703c683f35bd414e7dd09aeee874fe401bab830f3a82426001848154811061061657610616610af5565b9060005260206000200160405161033393929190610b34565b6000546001600160a01b031633146106595760405162461bcd60e51b815260040161018490610a8d565b80516106b55760405162461bcd60e51b815260206004820152602560248201527f546865206e616d6520666f722074686520726f6c652063616e6e6f7420626520604482015264626c616e6b60d81b6064820152608401610184565b600580549060006106c583610b0b565b9091555050600180548082018255600091909152815161070c917fb10e2d527612073b26eecdfd717e6a320cf44b4afac2b0732d9fcbe2b7fa0cf6019060208401906107e6565b5050565b6001818154811061072057600080fd5b90600052602060002001600091509050805461073b90610aba565b80601f016020809104026020016040519081016040528092919081815260200182805461076790610aba565b80156107b45780601f10610789576101008083540402835291602001916107b4565b820191906000526020600020905b81548152906001019060200180831161079757829003601f168201915b505050505081565b600281815481106107cc57600080fd5b6000918252602090912001546001600160a01b0316905081565b8280546107f290610aba565b90600052602060002090601f016020900481019282610814576000855561085a565b82601f1061082d57805160ff191683800117855561085a565b8280016001018555821561085a579182015b8281111561085a57825182559160200191906001019061083f565b5061086692915061086a565b5090565b5b80821115610866576000815560010161086b565b80356001600160a01b038116811461089657600080fd5b919050565b600080604083850312156108ae57600080fd5b6108b78361087f565b9150602083013580151581146108cc57600080fd5b809150509250929050565b6000602082840312156108e957600080fd5b6108f28261087f565b9392505050565b6000815180845260005b8181101561091f57602081850181015186830182015201610903565b81811115610931576000602083870101525b50601f01601f19169290920160200192915050565b838152821515602082015260606040820152600061096760608301846108f9565b95945050505050565b6000806040838503121561098357600080fd5b61098c8361087f565b946020939093013593505050565b634e487b7160e01b600052604160045260246000fd5b6000602082840312156109c257600080fd5b813567ffffffffffffffff808211156109da57600080fd5b818401915084601f8301126109ee57600080fd5b813581811115610a0057610a0061099a565b604051601f8201601f19908116603f01168101908382118183101715610a2857610a2861099a565b81604052828152876020848701011115610a4157600080fd5b826020860160208301376000928101602001929092525095945050505050565b600060208284031215610a7357600080fd5b5035919050565b6020815260006108f260208301846108f9565b60208082526013908201527220b1b1b2b9b9903737ba1033b930b73a32b21760691b604082015260600190565b600181811c90821680610ace57607f821691505b60208210811415610aef57634e487b7160e01b600052602260045260246000fd5b50919050565b634e487b7160e01b600052603260045260246000fd5b6000600019821415610b2d57634e487b7160e01b600052601160045260246000fd5b5060010190565b6001600160a01b03841681526020808201849052606060408301528254600091908290600181811c9082811680610b6c57607f831692505b858310811415610b8a57634e487b7160e01b85526022600452602485fd5b6060880183905260808801818015610ba95760018114610bba57610be5565b60ff19861682528782019650610be5565b60008b81526020902060005b86811015610bdf57815484820152908501908901610bc6565b83019750505b50949b9a505050505050505050505056fea2646970667358221220809daceb3ccbe8daaf97474934a0f90e2e0327ce033df440788d1f5ebe6ddbd064736f6c634300080b0033",
  "immutableReferences": {},
  "source": "contract MemberRole {\n    /** Admin address */\n    address owner;\n\n    /**\n    Struct defining the role for members of the community\n    activationTime - The timestamp from which the role will be enabled\n    isActive - if a role is active or not\n    roleType - the role type through this custom business logic can be built\n    */\n    struct Role {\n        uint256 activationTime;\n        bool isActive;\n        string roleType;\n    }\n\n    /** Dynamic array holding all the roles */\n    string[] public roleTypes;\n\n    /** Dynamic array holding users addresses */\n    address[] public addresses;\n    /** Relationship between users and their role */\n    mapping(address => Role) public userRole;\n\n    /** Total count of users that have a role */\n    uint256 public membersCount;\n    /** Total count of Jur Role Types **/\n    uint256 public roleTypesCount;\n\n    event StateChanged(address member, bool newRole, uint256 timestamp);\n    event RoleAdded(address member, uint256 activationTime, string roleType);\n\n    modifier onlyOwner() {\n        require(msg.sender == owner, \"Access not granted.\");\n        _;\n    }\n\n    constructor() {\n        owner = msg.sender;\n    }\n\n    /**\n    @dev addRole - allows Admin to assign a Role to a Member\n    @param _member - the address of the member that will get the new role assigned\n    @param _roleType - index of the role in the roleTypes array\n    */\n    function addRole(address _member, uint256 _roleType) public onlyOwner {\n        require(_member != address(0), \"Please provide a valid address.\");\n        userRole[_member] = Role(block.timestamp, true, roleTypes[_roleType]);\n        addresses.push(_member);\n        membersCount++;\n\n        emit RoleAdded(_member, block.timestamp, roleTypes[_roleType]);\n    }\n\n    /**\n    @dev changeRoleStatus - allows Admin to change the status of a Member\n    @param _member - the address of the member whose status will toggle\n    @param _newState -  activate or disable the role\n    */\n    function changeRoleStatus(address _member, bool _newState)\n        public\n        onlyOwner\n    {\n        require(_member != address(0), \"Pleae provide a valid address.\");\n        require(\n            userRole[_member].activationTime != 0,\n            \"This address is not a valid member\"\n        );\n        require(\n            userRole[_member].isActive != _newState,\n            \"The member is already in this state\"\n        );\n        userRole[_member].isActive = _newState;\n\n        emit StateChanged(_member, _newState, block.timestamp);\n    }\n\n    /**\n    @dev addRoleType - allows Admin to add a new role that can be assigned to members\n    logic.\n    @param _roleType - the name for the new role\n    */\n    function addRoleType(string memory _roleType) public onlyOwner {\n        require(\n            bytes(_roleType).length != 0,\n            \"The name for the role cannot be blank\"\n        );\n        roleTypesCount++;\n        roleTypes.push(_roleType);\n    }\n}\n",
  "sourcePath": "/Users/emmanuel/Project/intvw/Aguadulce/contract/contracts/MemberRole.sol",
  "compiler": {
    "name": "solc",
    "version": "0.8.11+commit.d7f03943.Emscripten.clang"
  },
  "schemaVersion": "3.4.5",
  "updatedAt": "2022-11-16T12:35:42.804Z",
  "networkType": "ethereum",
  "devdoc": {
    "kind": "dev",
    "methods": {
      "addRole(address,uint256)": {
        "details": "addRole - allows Admin to assign a Role to a Member",
        "params": {
          "_member": "- the address of the member that will get the new role assigned",
          "_roleType": "- index of the role in the roleTypes array"
        }
      },
      "addRoleType(string)": {
        "details": "addRoleType - allows Admin to add a new role that can be assigned to members logic.",
        "params": {
          "_roleType": "- the name for the new role"
        }
      },
      "changeRoleStatus(address,bool)": {
        "details": "changeRoleStatus - allows Admin to change the status of a Member",
        "params": {
          "_member": "- the address of the member whose status will toggle",
          "_newState": "-  activate or disable the role"
        }
      }
    },
    "version": 1
  },
  "userdoc": {
    "kind": "user",
    "methods": {
      "addresses(uint256)": {
        "notice": "Dynamic array holding users addresses "
      },
      "membersCount()": {
        "notice": "Total count of users that have a role "
      },
      "roleTypes(uint256)": {
        "notice": "Dynamic array holding all the roles "
      },
      "roleTypesCount()": {
        "notice": "Total count of Jur Role Types *"
      },
      "userRole(address)": {
        "notice": "Relationship between users and their role "
      }
    },
    "version": 1
  }
}